:100000000C9434000C9446000C9446000C9446006A
:100010000C9446000C9446000C9446000C94460048
:100020000C9446000C9446000C9446000C94460038
:100030000C9446000C9446000C94DD000C94460091
:100040000C9446000C9446000C9446000C94460018
:100050000C9446000C9446000C9446000C94460008
:100060000C9446000C94460011241FBECFEFD8E03C
:10007000DEBFCDBF21E0A0E0B1E001C01D92A43001
:10008000B207E1F70E9400010C9410010C940000EB
:1000900082E084BD93E095BD80936E0089EF87BDBB
:1000A00008952FB7F894609100017091010180913B
:1000B0000201909103012FBF0895E4E6F0E08081F2
:1000C0008F7D8083EEE6F0E08081826080830895FA
:1000D000EEE6F0E080818D7F8083E4E6F0E08081D1
:1000E0008062808308958FB7F89410920001109277
:1000F000010110920201109203018FBF08950F9326
:100100001F938B019C014FB7F8948091000190914F
:100110000101A0910201B0910301800F911FA21F64
:10012000B31F8093000190930101A0930201B0934B
:1001300003014FBF1F910F9108950F931F938B01E0
:100140009C014FB7F8948091000190910101A0911A
:100150000201B0910301801B910BA20BB30B8093A2
:10016000000190930101A0930201B09303014FBFDE
:100170001F910F9108958F929F92AF92BF92CF924D
:10018000DF92EF92FF926B017C010E9451004B01C4
:100190005C010E945100681979098A099B096C1554
:1001A0007D058E059F05A8F3FF90EF90DF90CF901F
:1001B000BF90AF909F908F9008951F921FB61F928F
:1001C00011248F939F93AF93BF93809100019091DF
:1001D0000101A0910201B09103010196A11DB11D81
:1001E0008093000190930101A0930201B093030159
:1001F000BF91AF919F918F911F901FBE1F90189537
:100200000E9448007894259A2D98C0E285B18C27E9
:1002100085B968EE73E080E090E00E94BB00F6CF05
:04022000F894FFCF80
:00000001FF
